:02000002D0002C
:1040000000400D00945C0D00000006000C0005014E
:084010000401E80500000000B6
:04401800F0570D0050
:10401C0009480A49884208B505D0094A824202D0AB
:10402C00121A01F09BFB0748074A0021121A01F0F3
:10403C00A0FB014808BD00BF50E30320045C0D0049
:10404C00B8E30320B8E30320F0E7032070B500F0D9
:10405C0037FC074C074BE41AA40800251E46A54262
:10406C0004D056F8253098470135F8E770BD00BFED
:10407C00005C0D00C85B0D0000F020B808B500F026
:10408C009DF8BDE8084000F0DDBB00F069BA00F017
:10409C0067BA0078B0FA80F04009704701230370CA
:1040AC00704710B50446006808B100F059FA204674
:1040BC0010BD0A46002100F03ABB000008B500F024
:1040CC0005FD4FF4165100F0EFFC00F0FFFC00F082
:1040DC00F2FC0028F9D04FF47A7000F075FB00F078
:1040EC00F5FC0249FFF7E5FF08BD00BF04580D00C1
:1040FC0013460A46002100F01ABB000073B500F00D
:10410C00E5FC254D2549FFF7D4FF00232B604FF428
:10411C0080760E2000F09AFF2B681F4C1844286004
:10412C00032000F051FB013EF3D100F0CFFC2268DC
:10413C001B491C4DFFF7DCFF2368A3F58533BE3B01
:10414C00236000F0C3FC22681749FFF7D1FFD4EDC0
:10415C00007A9FED167ADFED166AFAEECC7A67EEEE
:10416C00877A9FED147A67EE877A87EEA67A85EDCB
:10417C00007A00F0ABFC0446286801F08DFA0E4A78
:10418C00CDE900013146204600F0D1FADA2002B028
:10419C00BDE8704000F018BBCCE30320C0580D0004
:1041AC003E580D00BCE3032057580D000000803929
:1041BC003D0A0740645AC947B4580D00FFF79EBF2B
:1041CC0010B50A4C00F028F800232360A380A371DB
:1041DC00238102204FF6FF73638100F03DF92046E6
:1041EC00034A0449BDE8104000F088BFC0E3032037
:1041FC00B8E30320AF400D0008B5024B1B689B6869
:10420C00019308BD6802030008B5024B1B68DB680C
:10421C00019308BD6802030008B5024B1B681B68BC
:10422C00019308BD2C02030008B5024B1B685B68A8
:10423C00019308BD2C02030008B5024B1B681B6BD5
:10424C00019308BD2C02030008B5024B1B68DB6907
:10425C00019308BD3002030008B5024B1B681B6AB2
:10426C00019308BD3002030008B5024B1B685B6864
:10427C00019308BD1802030008B5024B1B685B696B
:10428C00019308BD1802030008B5024B1B689B681C
:10429C00019308BD4802030008B5024B1B681B695B
:1042AC00019308BD4802030008B5024B1B685B690B
:1042BC00019308BD4802030008B5024B1B685B6CF8
:1042CC00019308BD4802030008B5024B1B689B6CA8
:1042DC00019308BD4802030008B5024B1B685B69DB
:1042EC00019308BD6402030008B5024B1B681B68F0
:1042FC00019308BD3C02030008B5024B1B68DB6848
:10430C00019308BD3C02030008B5024B1B681B69F6
:10431C00019308BD3C02030008B5024B1B685B69A6
:10432C00019308BD3C02030008B5024B1B689B6956
:10433C00019308BD3C02030008B5024B1B68DB6906
:10434C00019308BD3C02030008B5024B1B681B6AB5
:10435C00019308BD3C02030008B5024B1B689B6A25
:10436C00019308BD3C02030008B5024B1B681B6A95
:10437C00019308BD2802030008B5024B1B685B6A59
:10438C00019308BD2802030008B5024B1B689B6A09
:10439C00019308BD2802030008B5024B1B68DB6AB9
:1043AC00019308BD2802030008B5024B1B681B6B68
:1043BC00019308BD2802030008B5024B1B685B6B18
:1043CC00019308BD2802030008B5024B1B681B6C47
:1043DC00019308BD2802030008B5024B1B681B683B
:1043EC00019308BD4C02030008B5024B1B685B68C7
:1043FC00019308BD4C02030008B5024B1B681B69F6
:10440C00019308BD4C02030008B5024B1B685B69A5
:10441C00019308BD4C02030008B5024B1B689B6955
:10442C00019308BD4C02030008B5024B1B68DB6905
:10443C00019308BD4C02030008B5024B1B681B6AB4
:10444C00019308BD4C02030008B5024B1B685B6A64
:10445C00019308BD4C02030008B5024B1B685B6856
:10446C00019308BD2002030008B5024B1B685B6971
:10447C00019308BD2002030008B5034B1B68D3F859
:10448C008830019308BD00002002030008B5034BDF
:10449C001B68D3F89430019308BD00002002030080
:1044AC0008B5024B1B685B68019308BD4002030012
:1044BC0008B5024B1B689B68019308BD40020300C2
:1044CC0008B5024B1B68DB68019308BD4002030072
:1044DC0008B5024B1B681B69019308BD4002030021
:1044EC0008B5024B1B685B69019308BD40020300D1
:1044FC0008B5024B1B689B69019308BD4002030081
:10450C0008B5024B1B68DB69019308BD4002030030
:10451C0008B5024B1B681B6A019308BD40020300DF
:10452C0008B5024B1B681B6B019308BD40020300CE
:10453C0008B5024B1B685B6B019308BD400203007E
:10454C0008B5024B1B68DB6B019308BD44020300EA
:10455C0008B5024B1B681B68019308BD1C020300C5
:10456C0008B5024B1B685B68019308BD1C02030075
:10457C0008B5024B1B685B6A019308BD1C02030063
:10458C00002211464068FFF7C3BF00221146406865
:10459C00FFF7CEBF00224068FFF7C2BF002281F0B8
:1045AC0001014068FFF7ACBF00231A46194640686A
:1045BC00FFF79EBF00231A4619464068FFF790BFCD
:1045CC00002211464068FFF783BF00221146406865
:1045DC00FFF76EBF002202214068FFF771BF002376
:1045EC001A464068FFF75CBF024B03225A60024A2E
:1045FC001A607047D0E30320F0580D0010B5044644
:10460C0001700846FFF720FE00236360204610BDB2
:10461C000078FFF721BE000010B5094C00204FF6C2
:10462C00FF732060A080A07120816381FFF714FFCD
:10463C002046044A0449BDE8104000F05FBD00BFAD
:10464C00D8E30320B8E30320AF400D0010B50446B7
:10465C00006808B1FFF738FE204610BD10B5064CB7
:10466C00002320462360FFF727FE2046034A044917
:10467C00BDE8104000F042BDE4E30320B8E30320A2
:10468C0059460D00F8B506460D468F180024BD425C
:10469C000CD0336815F8011B9B68304698470028EE
:1046AC0001DB0444F3E7002C08BF04462046F8BDA8
:1046BC0070B505460C46084649B101F08BF82B68DD
:1046CC00024621462846DB68BDE87040184770BD9D
:1046DC0003689B68184738B50D210546FFF7F8FFAE
:1046EC000A2104462846FFF7F3FF204438BD30B5B5
:1046FC008BB00B4600218DF82410012A98BF0A229A
:10470C000DF12304B3FBF2F505FB123303F0FF03A9
:10471C00092B94BF30333733DBB2214604F801390F
:10472C002B46002DEED1FFF7C3FF0BB030BD0CB400
:10473C002DE9F04387B000AF07F13804054654F873
:10474C00049B3C600E4623464A461421381DFFF755
:10475C000FFF132805D8391D2846FFF7A9FF04467B
:10476C0013E000F1080323F00703E846ADEB030D5B
:10477C00411C23464A4668463C60FFF7F9FE6946F1
:10478C002846FFF795FF0446C5461EB12846FFF79D
:10479C00A2FF044420461C37BD46BDE8F04302B0DE
:1047AC0070470000014B024A1A607047E8E303208F
:1047BC008F590D00024B1A68024B1A60704700BFEC
:1047CC0050E30320ECE303200021FFF74DBE10B5AE
:1047DC008368044613B1032201469847204610BD56
:1047EC0010B50446FFF7F3FF204610BD0348044AFA
:1047FC0004490023836000F081BC00BFF0E3032078
:10480C00B8E30320ED470D0008B50C4B33B100F0B5
:10481C005DF903681B699847002809DC084B63B1F4
:10482C0000F0D6F903681B699847002803DC08BD23
:10483C00AFF30080F2E7AFF3008008BD000000008A
:10484C000000000008B5FFF7DFFFFFF715FD014B77
:10485C00186008BD30E703200248034A0349121AC6
:10486C0000F07CBF00F4032004F40320005C0D0076
:10487C0007B5002300931A466FF07701FFF706FE89
:10488C0003B05DF804FB000007B543880A2B08D081
:10489C00502B09D1094B1B683BB103B05DF804EBFD
:1048AC001847FFF7E5FF06E0002300931A466FF068
:1048BC007701FFF7EBFD03B05DF804FB00E4032088
:1048CC0038B5104C104D2368AB42104B0CBF012275
:1048DC0000221A7002D0FFF7BFFF2560FFF7C4FC5F
:1048EC00044600F04FFF0A4B13B12046AFF3008093
:1048FC0000210748FFF724FE00210648BDE8384098
:10490C00FFF7BABD00F403201E1C279A04E4032011
:10491C000000000095480D00704710B518210446A2
:10492C0000F0FAFB204610BDF0B5037D062B8DB0D0
:10493C000E4600F104074FF0000402D000F1080508
:10494C0018E00CAD394605F8304D2F232A460A20C5
:10495C00FFF7C2FC284600F03DFF33680246DB68D7
:10496C002946304698470FE024B12E213046FFF7F8
:10497C00AFFE044415F8011D0A223046FFF7B7FEBE
:10498C00BD420444F0D120460DB0F0BD10B5054B2E
:10499C000446112240F8043B002100F0EAFE2046B8
:1049AC0010BD00BF305A0D000346074A10B543F83E
:1049BC00042B01F1100251F8044B43F8044B9142C3
:1049CC00F9D10A781A7010BD305A0D0010B59DF847
:1049DC00084044EA032343EA024242EA0161042309
:1049EC004160037510BD37B50D788B784A78C9785E
:1049FC0000912946FFF7EAFF03B030BD41747047C0
:104A0C00704708B50021007CFFF706FD30EA200056
:104A1C0028BF4FF0FF3008BD08B50121007CFFF71F
:104A2C00FBFC30EA200028BF4FF0FF3008BD08B572
:104A3C00007CFFF7E9FC20EAE07008BD08B5007CBB
:104A4C00FFF7DAFC20EAE07008BD007CFFF7F4BC4D
:104A5C0010B51421044600F05FFB204610BD38B59C
:104A6C000446007C0D46FFF7CFFC002801DC607C7F
:104A7C0028B12946207CFFF7D7FC20EAE07038BD2E
:104A8C0010B50446002363604FF47A73A360054BA2
:104A9C00236001230846217463741146FFF79CFCC4
:104AAC00204610BD445A0D000022007CFFF79CBC30
:104ABC00007CFFF7C9BCFFF7FBBF10B514220446FE
:104ACC00002100F056FE204610BD000030B50E4D02
:104ADC0087B001A8FFF7F1FF296811F0010410D18C
:104AEC002846FFF7D6FA60B101AA21460748FFF71E
:104AFC00C7FF2846FFF7D2FA054A0649034800F0DB
:104B0C00FDFA024807B030BD08E403200CE4032092
:104B1C00B8E303200D4A0D0070474174704708B587
:104B2C00007CFFF719FC20EAE07008BD08B5007C9A
:104B3C00FFF7EAFB20EAE07008BD08B5007CFFF740
:104B4C00F3FB30EA200028BF4FF0FF3008BD08B55A
:104B5C00007CFFF7E1FB30EA200028BF4FF0FF306C
:104B6C0008BD007CFFF7E8BB10B51421044600F02B
:104B7C00D3FA204610BD70B5457C04460E4625B9C7
:104B8C00007CFFF7E9FB002805DD3146207CBDE801
:104B9C007040FFF7B1BB284670BD000010B504464D
:104BAC0008461146002262604FF47A72A260054AF0
:104BBC0022600122207462741A46FFF795FB20468E
:104BCC0010BD00BF745A0D00007CFFF7BDBB000088
:104BDC0038B50C4D296811F0010411D12846FFF7A6
:104BEC0058FA68B1084A094B09482146FFF7D6FF25
:104BFC002846FFF753FA074A0749054800F07EFAA2
:104C0C00034838BDB8E40320BCE4032034E403209B
:104C1C0020E40320B8E30320254B0D007047F8B5C2
:104C2C00064615460C468F18BC4206D0336814F85D
:104C3C00011B9B6830469847F6E72846F8BD0022D2
:104C4C00007CFFF791BB0021007CFFF795BB002196
:104C5C00007CFFF799BB0021007CFFF79DBB002176
:104C6C00007CFFF7A1BB10B51421044600F054FAE8
:104C7C00204610BD10B50446002363604FF47A73D0
:104C8C00A360044B2174084623601146FFF79CFB7C
:104C9C00204610BDA45A0D000021007CFFF78CBBF0
:104CAC00002211464068FFF733BC002211464068D1
:104CBC00FFF73EBC00224068FFF732BC002281F0B7
:104CCC0001014068FFF71CBC00231A460121406813
:104CDC00FFF70EBC00231A4619464068FFF700BCCC
:104CEC00002211464068FFF7F3BB002211464068D2
:104CFC00FFF7DEBB002202214068FFF7E1BB002377
:104D0C001A464068FFF7CCBB38B5054688B1046835
:104D1C004CB1A3681BB103222146204698471021B1
:104D2C00204600F0F9F928461421BDE8384000F07F
:104D3C00F3B938BD10B103685B681847704710B5FC
:104D4C0003680446BBB15868FFF79EFA78B923682C
:104D5C005A7C12B95868FFF79FFA23685868FFF716
:104D6C00A3FA20680023236028B1FFF7CDFF206849
:104D7C0008B1FFF7C9FF204610BD38B50446D0F87E
:104D8C00C40108B1FFF783F9D4F8C00108B1FFF7EB
:104D9C009BFAD4F8BC5135B12846FFF7D0FF04215B
:104DAC00284600F0B9F9206808B1FFF7C3FF204688
:104DBC0038BD000010B5044B044640F8083BFFF723
:104DCC00DCFF204610BD00BFCC5A0D0038B50E4C90
:104DDC000E4B23600025022304F5E4706360A5608C
:104DEC00C4F8C451C4F8C851FFF766FA084BC4F8AC
:104DFC00CC5184F8D05123602046064A0649BDE8C0
:104E0C00384000F07BB900BF40E50320345B0D0057
:104E1C00CC5A0D00B8E30320C14D0D000022114601
:104E2C004068FFF755BB002211464068FFF770BB86
:104E3C00002211464068FFF77BBB00224068FFF759
:104E4C006FBB002281F001014068FFF759BB0023C2
:104E5C001A4619464068FFF74BBB00231A46194601
:104E6C004068FFF73DBB002211464068FFF720BBAE
:104E7C00002202214068FFF723BB00231A4640683A
:104E8C00FFF70EBB024B04225A60024A1A607047AD
:104E9C0014E70320005B0D0000231A464068FFF75F
:104EAC00FFBA002202214068FFF70ABB002211461C
:104EBC004068FFF7FDBA002211464068FFF708BBB7
:104ECC0000231A4619464068FFF70ABB00231A460E
:104EDC0019464068FFF70CBB002281F001014068C5
:104EEC00FFF70EBB00224068FFF71ABB00221146E9
:104EFC004068FFF71DBB002211464068FFF708BB56
:104F0C002DE9F043002495B016460D460746FFF7F1
:104F1C003DFD214620220CA8009400F02AFC4023E1
:104F2C000C9321466B460CAA3046FFF76DF90446EC
:104F3C00002844D1024601216868FFF7C9FA022112
:104F4C00804622466868FFF7C3FA009E81462146D8
:104F5C00002E34D0002932D17368022B02D00A2BD8
:104F6C0009D02AE0B8F1000F27D071693846043116
:104F7C00FFF739FD20E0B9F1000F1ED07469112242
:104F8C0001A800F0F6FB06238DF8143001AD04F1F6
:104F9C0008031834186859682A4603C20833A34218
:104FAC001546F7D101A906A807ADFFF7FDFC0FCDFB
:104FBC003C1D0FC42B6823700121F669C8E70098CB
:104FCC00FFF71AF9384615B0BDE8F083024B034AD7
:104FDC001A6000225A6070471CE70320345B0D00F6
:104FEC0070B5184E316811F0010504460AD13046EF
:104FFC00FFF74FF830B129461348FFF7FFFA304658
:10500C00FFF74CF81048FFF703FB28B1A4F10B0392
:10501C00022B01D8002070BD00F04AF8FFF73CFECF
:10502C0008B1012CF6D9FFF7D3FDFFF7CDFD18B170
:10503C00A4F10903012BEDD9232C8CBF00200120F6
:10504C0070BD00BF24E7032028E703200D2810B50E
:10505C0004469CBF0E34A4B22046FFF7C1FF50B1EA
:10506C0003212046FFF7E0F8032804D12046BDE8D1
:10507C001040FFF7E1B8002010BD000070B50446E9
:10508C0014252A46094E002100F073FB25802025AB
:10509C003146A5602561284600F040F83146606035
:1050AC00284600F03BF8E060204670BD605B0D00C8
:1050BC0030B50E4D296811F0010487B013D1284684
:1050CC00FEF7E7FF78B101A8FFF7D8FF01AA214648
:1050DC000748FFF7CFFD2846FEF7E0FF054A0649D3
:1050EC00034800F00BF8024807B030BD34E703204A
:1050FC0038E70320B8E30320294C0D000B4601468A
:10510C00184600F01DBB0000024B1868BFF35F8F00
:10511C00704700BF4CE70320FEF7B7BF00F000B8A4
:10512C0010B5002814BF044601242046FFF710FADE
:10513C0020B9FFF7E9FF08B18047F6E710BD000082
:10514C00184B1A68D1075CBF01221A60164B1A68FB
:10515C00D2075CBF01221A60144B1A68D0075CBFDF
:10516C0001221A60124B1A68D1075CBF01221A6027
:10517C00104B1A68D2075CBF01221A600E4B1A68DA
:10518C00D0075CBF01221A600C4B1A68D1075CBFB8
:10519C0001221A600A4B1A68D2075CBF01221A60FE
:1051AC00704700BF6CE7032068E7032064E7032027
:1051BC0060E703205CE7032058E7032054E7032053
:1051CC0050E70320244B1A68D0075CBF01221A60F9
:1051DC00224B1A68D1075CBF01221A60204B1A6857
:1051EC00D2075CBF01221A601E4B1A68D0075CBF45
:1051FC0001221A601C4B1A68D1075CBF01221A608D
:10520C001A4B1A68D2075CBF01221A60184B1A6835
:10521C00D0075CBF01221A60164B1A68D1075CBF1D
:10522C0001221A60144B1A68D2075CBF01221A6063
:10523C00124B1A68D0075CBF01221A60104B1A6817
:10524C00D1075CBF01221A600E4B1A68D2075CBFF3
:10525C0001221A60704700BF9CE7032098E70320E7
:10526C0094E7032090E703208CE7032088E70320D2
:10527C0084E7032080E703207CE7032078E7032002
:10528C0074E7032070E70320244B1A68D0075CBF37
:10529C0001221A60224B1A68D1075CBF01221A60E6
:1052AC00204B1A68D2075CBF01221A601E4B1A6889
:1052BC00D0075CBF01221A601C4B1A68D1075CBF77
:1052CC0001221A601A4B1A68D2075CBF01221A60BD
:1052DC00184B1A68D0075CBF01221A60164B1A686B
:1052EC00D1075CBF01221A60144B1A68D2075CBF4D
:1052FC0001221A60124B1A68D0075CBF01221A6097
:10530C00104B1A68D1075CBF01221A600E4B1A6849
:10531C00D2075CBF01221A60704700BFCCE70320A4
:10532C00C8E70320C4E70320C0E70320BCE7032041
:10533C00B8E70320B4E70320B0E70320ACE7032071
:10534C00A8E70320A4E70320A0E70320184B1A6862
:10535C00D1075CBF01221A60164B1A68D2075CBFDA
:10536C0001221A60144B1A68D0075CBF01221A6024
:10537C00124B1A68D1075CBF01221A60104B1A68D5
:10538C00D2075CBF01221A600E4B1A68D0075CBFB3
:10539C0001221A600C4B1A68D1075CBF01221A60FB
:1053AC000A4B1A68D2075CBF01221A60704700BF13
:1053BC00ECE70320E8E70320E4E70320E0E7032021
:1053CC00DCE70320D8E70320D4E70320D0E7032051
:1053DC0081F0004102E000BF83F0004330B54FEA9A
:1053EC0041044FEA430594EA050F08BF90EA020F07
:1053FC001FBF54EA000C55EA020C7FEA645C7FEA9A
:10540C00655C00F0E2804FEA5454D4EB5555B8BFBC
:10541C006D420CDD2C4480EA020281EA030382EA2D
:10542C00000083EA010180EA020281EA0303362DBF
:10543C0088BF30BD11F0004F4FEA01314FF4801C92
:10544C004CEA113102D0404261EB410113F0004FA4
:10545C004FEA03334CEA133302D0524263EB43035B
:10546C0094EA050F00F0A780A4F10104D5F1200EF9
:10547C000DDB02FA0EFC22FA05F2801841F1000154
:10548C0003FA0EF2801843FA05F359410EE0A5F128
:10549C0020050EF1200E012A03FA0EFC28BF4CF059
:1054AC00020C43FA05F3C01851EBE37101F000450F
:1054BC0007D54FF0000EDCF1000C7EEB00006EEB1C
:1054CC000101B1F5801F1BD3B1F5001F0CD34908A6
:1054DC005FEA30004FEA3C0C04F101044FEA4452FD
:1054EC0012F5800F80F09A80BCF1004F08BF5FEA84
:1054FC00500C50F1000041EB045141EA050130BD64
:10550C005FEA4C0C404141EB010111F4801FA4F106
:10551C000104E9D191F0000F04BF01460020B1FA5B
:10552C0081F308BF2033A3F10B03B3F120020CDA93
:10553C000C3208DD02F1140CC2F10C0201FA0CF071
:10554C0021FA02F10CE002F11402D8BFC2F1200CD6
:10555C0001FA02F120FA0CFCDCBF41EA0C0190408C
:10556C00E41AA2BF01EB0451294330BD6FEA0404D5
:10557C001F3C1CDA0C340EDC04F11404C4F12002C0
:10558C0020FA04F001FA02F340EA030021FA04F3D2
:10559C0045EA030130BDC4F10C04C4F1200220FA29
:1055AC0002F001FA04F340EA0300294630BD21FA67
:1055BC0004F0294630BD94F0000F83F4801306BF2D
:1055CC0081F480110134013D4EE77FEA645C18BF21
:1055DC007FEA655C29D094EA050F08BF90EA020FB8
:1055EC0005D054EA000C04BF1946104630BD91EAB0
:1055FC00030F1EBF0021002030BD5FEA545C05D1B3
:10560C004000494128BF41F0004130BD14F58004F1
:10561C003CBF01F5801130BD01F0004545F0FE4165
:10562C0041F470014FF0000030BD7FEA645C1ABF9A
:10563C00194610467FEA655C1CBF0B46024650EAD1
:10564C00013406BF52EA033591EA030F41F40021FD
:10565C0030BD00BF90F0000F04BF0021704730B583
:10566C004FF4806404F132044FF000054FF0000158
:10567C0050E700BF90F0000F04BF0021704730B519
:10568C004FF4806404F1320410F0004548BF4042EE
:10569C004FF000013EE700BF42004FEAE2014FEA43
:1056AC0031014FEA02701FBF12F07F4393F07F4F1E
:1056BC0081F06051704792F0000F14BF93F07F4F50
:1056CC00704730B54FF4607401F0004521F0004193
:1056DC0020E700BF50EA010208BF704730B54FF019
:1056EC0000050AE050EA010208BF704730B511F01E
:1056FC00004502D5404261EB41014FF4806404F156
:10570C0032045FEA915C3FF4DCAE4FF003025FEAD7
:10571C00DC0C18BF03325FEADC0C18BF033202EB5F
:10572C00DC02C2F1200300FA03FC20FA02F001FAB9
:10573C0003FE40EA0E0021FA02F11444C1E600BF58
:10574C0010B5054C13462CB10A4601460220AFF3A6
:10575C00008010BD204610BD0000000010B5431E97
:10576C000A44914204D011F8014B03F8014FF8E7B9
:10577C0010BD02440346934202D003F8011BFAE722
:10578C007047000038B5124B1C68A36B0546D3B9A3
:10579C001820FEF7DDFE43F20E33A06303804AF6B9
:1057AC00CD33438041F2342383804EF26D63C3804A
:1057BC004DF6EC630381052343810B238381012286
:1057CC000023C0E90423A36B00221D615A6138BD7C
:1057DC00B4E30320034613F8012B002AFBD1181A5B
:1057EC00013870471D400D0059400D0085400D00DB
:1057FC0089400D00000000005374617274204E4FFC
:10580C00325F476173436F6C6C656374696F6E0ACA
:10581C00004D30315F476574476173436F6E63654C
:10582C006E74726174696F6E5F4D616B6572494F16
:10583C000A0020544F54414C3A2073656E736F72BA
:10584C0056616C7565203E25690A0020544F544101
:10585C004C3A2073656E736F7256616C7565206679
:10586C006F6C6C6F77696E672073756274726163AD
:10587C0074696F6E203E25690A0050504D203D2002
:10588C00000A4D30325F476574476173436F6E6336
:10589C00656E74726174696F6E5F4D616B65724990
:1058AC004F2D544553540A0050504D203E25302E58
:1058BC0032660A000A4D30335F47657447617343A3
:1058CC006F6E63656E74726174696F6E5F4D616B40
:1058DC006572494F2D46494E414C0A0000000000AC
:1058EC0000000000EB450D00E1450D00D7450D0013
:1058FC00CD450D00C1450D00B5450D00A9450D0068
:10590C00A1450D0097450D008D450D000D4F0D0067
:10591C00626175640053657269616C0053657269EC
:10592C00616C31007479706500706172616D006337
:10593C006D6400696400686E64007374726D006657
:10594C00696C74006C766C0061646448616E646CA4
:10595C0065720072656D6F766548616E646C657218
:10596C0000656E756D48616E646C657273004A53A8
:10597C004F4E53747265616D4C6F6748616E646C09
:10598C0065720061707000253031307520005D202B
:10599C00002564002C200028293A2000205B00639D
:1059AC006F6465203D200025690064657461696C35
:1059BC0073203D20000D0A0066006C6E00666E00C0
:1059CC00636F64650064657461696C006E6F6E650D
:1059DC0000747261636500696E666F007761726E48
:1059EC00006572726F720070616E696300616C6C3D
:1059FC00005A00252B3033643A2530327500255976
:105A0C002D256D2D25645425483A254D3A255325D1
:105A1C007A0061736374696D65000000000000001A
:105A2C000000000035490D0025490D0027490D00E7
:105A3C0000000000000000000D4A0D005D4A0D0042
:105A4C006B4A0D0091460D00494A0D000F4A0D009E
:105A5C00254A0D00574A0D003B4A0D00094A0D001E
:105A6C000000000000000000254B0D00754B0D00E0
:105A7C00834B0D0091460D00394B0D005B4B0D0017
:105A8C00474B0D006F4B0D00274B0D002B4B0D00A2
:105A9C000000000000000000294C0D00734C0D00AC
:105AAC004B4C0D002B4C0D00534C0D005B4C0D0062
:105ABC00634C0D006B4C0D0000000000000000005A
:105ACC000B4D0D00014D0D00F74C0D00ED4C0D0074
:105ADC00E14C0D00D54C0D00C94C0D00C14C0D0016
:105AEC00B74C0D00AD4C0D000D4F0D00000000002B
:105AFC0000000000874E0D007D4E0D00734E0D0012
:105B0C00294E0D00674E0D005B4E0D004F4E0D00E3
:105B1C00474E0D003D4E0D00334E0D000D4F0D0048
:105B2C000000000000000000A54E0D00AF4E0D005F
:105B3C00B94E0D00C34E0D00CD4E0D00D94E0D00CB
:105B4C00E54E0D00F14E0D00F94E0D00034F0D000A
:105B5C000D4F0D00000000000000000000000000D0
:105B6C000000000000000000000000000000000029
:105B7C000000000000000000000000000000000019
:105B8C000000000000000000000000000000000009
:105B9C0000000000000000000000000000000000F9
:105BAC0000000000000000000000000000000000E9
:105BBC00000000000000000043000000CD410D007B
:105BCC00F5450D0025460D0069460D00B1470D0049
:105BDC00C1470D00F9470D00D94D0D00914E0D0038
:105BEC00D94F0D004D510D00D1510D0095520D00A6
:045BFC0059530D00EC
:045C000000000000A0
:105C04001E5A0D0000000000645B0D00845B0D0053
:105C1400A45B0D0000000000000000000000000074
:105C240000000000C45B0D00000000000000000044
:105C34000000000000000000000000000000000060
:105C44000000000000000000000000000000000050
:105C54000000000000000000000000000000000040
:085C64000000000054E30320DE
:105C6C00FFFFFFFF00000102030405060708090AF5
:105C7C000B0C0D0E0F101112131415161718191AF0
:085C8C001B1C1D1E1F20280037
:045C940078563412F8
:04000003D000401CCD
:00000001FF
